{
  "transactions": [
    {
      "hash": "0xb4e0ce955d33b9dfd93d25d9fd4d09854d1b2a728a5661c164c2f65b0b077666",
      "transactionType": "CALL",
      "contractName": null,
      "contractAddress": "0x093393db86dcfae9565dbd9fa03332d5cb3b6362",
      "function": "registerIssuer(address,string)",
      "arguments": [
        "0xb625c4699784c6bEDabB6A83005981a7c14186D3",
        "Nexash Hackathon Developer Issuer"
      ],
      "transaction": {
        "from": "0xff6a0f9197d7b70821b9fe00b2281595dfedf45f",
        "to": "0x093393db86dcfae9565dbd9fa03332d5cb3b6362",
        "gas": "0x27644",
        "value": "0x0",
        "input": "0x8dd0acb2000000000000000000000000b625c4699784c6bedabb6a83005981a7c14186d3000000000000000000000000000000000000000000000000000000000000004000000000000000000000000000000000000000000000000000000000000000214e6578617368204861636b6174686f6e20446576656c6f7065722049737375657200000000000000000000000000000000000000000000000000000000000000",
        "nonce": "0x2",
        "chainId": "0xb1"
      },
      "additionalContracts": [],
      "isFixedGasLimit": false
    }
  ],
  "receipts": [
    {
      "type": "0x2",
      "status": "0x1",
      "cumulativeGasUsed": "0x273f0",
      "logs": [
        {
          "address": "0x093393db86dcfae9565dbd9fa03332d5cb3b6362",
          "topics": [
            "0xc0e782e5ce31b3a8ed34a04353667fa795030402831742c8a4b938c2c96ef033",
            "0x000000000000000000000000b625c4699784c6bedabb6a83005981a7c14186d3"
          ],
          "data": "0x000000000000000000000000000000000000000000000000000000000000002000000000000000000000000000000000000000000000000000000000000000214e6578617368204861636b6174686f6e20446576656c6f7065722049737375657200000000000000000000000000000000000000000000000000000000000000",
          "blockHash": "0xe13171cb8c9c388fd958eb17fc2364cd9cfc8e17822cbb1f440f719542d5a5ad",
          "blockNumber": "0x1750815",
          "blockTimestamp": "0x6a4a19a9",
          "transactionHash": "0xb4e0ce955d33b9dfd93d25d9fd4d09854d1b2a728a5661c164c2f65b0b077666",
          "transactionIndex": "0x1",
          "logIndex": "0x0",
          "removed": false
        }
      ],
      "logsBloom": "0x00000000000000000000000000000000000000000000000000000400000000000000000000000000080000000000000000020000000400000000000000000000000000000000000000000000000000000000000000000000000000000008000000000000000000000000000000000000000000000000000000000000000000000004000000000000000000000000400000000000000000000000000000000000000000000000000000000000200000000000000000000000000000000000000000000000000000000000000000000200000000000000000000000000000000000000000000000000000000000000000000000000000000000000000000000000",
      "transactionHash": "0xb4e0ce955d33b9dfd93d25d9fd4d09854d1b2a728a5661c164c2f65b0b077666",
      "transactionIndex": "0x1",
      "blockHash": "0xe13171cb8c9c388fd958eb17fc2364cd9cfc8e17822cbb1f440f719542d5a5ad",
      "blockNumber": "0x1750815",
      "gasUsed": "0x1c84e",
      "effectiveGasPrice": "0xfd",
      "from": "0xff6a0f9197d7b70821b9fe00b2281595dfedf45f",
      "to": "0x093393db86dcfae9565dbd9fa03332d5cb3b6362",
      "contractAddress": null
    }
  ],
  "libraries": [],
  "pending": [],
  "returns": {},
  "timestamp": 1783241130372,
  "chain": 177,
  "commit": "05d33fe"
}